:020000040800F2
:100000000020002085180008A9070008AB07000899
:1000100000000000000000000000000000000000E0
:10002000000000000000000000000000AD07000814
:100030000000000000000000AF070008B107000842
:10004000D5180008D5180008D5180008D5180008DC
:10005000D5180008F5040008D5180008D5180008C0
:10006000D5180008D5180008D5180008D5180008BC
:100070004D050008D5180008D5180008D518000847
:10008000D5180008D518000800000000D518000891
:10009000D5180008D5180008D5180008D51800088C
:1000A000D5180008D5180008D5180008D51800087C
:1000B000D518000800000000D51800080000000056
:1000C00010B5064C2378002B07D1054B002B02D02E
:1000D000044800E000BF0123237010BD1000002081
:1000E0000000000030190008044B10B5002B03D0AD
:1000F0000349044800E000BF10BDC04600000000F6
:100100001400002030190008002243088B4274D3E9
:1001100003098B425FD3030A8B4244D3030B8B4208
:1001200028D3030C8B420DD3FF22090212BA030C11
:100130008B4202D31212090265D0030B8B4219D3F2
:1001400000E0090AC30B8B4201D3CB03C01A524112
:10015000830B8B4201D38B03C01A5241430B8B425A
:1001600001D34B03C01A5241030B8B4201D30B0343
:10017000C01A5241C30A8B4201D3CB02C01A52416A
:10018000830A8B4201D38B02C01A5241430A8B422D
:1001900001D34B02C01A5241030A8B4201D30B0216
:1001A000C01A5241CDD2C3098B4201D3CB01C01A30
:1001B000524183098B4201D38B01C01A524143093A
:1001C0008B4201D34B01C01A524103098B4201D328
:1001D0000B01C01A5241C3088B4201D3CB00C01A95
:1001E000524183088B4201D38B00C01A524143080D
:1001F0008B4201D34B00C01A5241411A00D2014632
:10020000524110467047FFE701B5002000F006F8A4
:1002100002BDC0460029F7D076E770477047C04658
:10022000F0B5C64600B58CB00AAD08220021280002
:1002300001F076FB1822002104A801F071FB274B86
:1002400059698020C003014359615A6902400392F1
:10025000039A596980208002014359615A6902401A
:100260000292029A5A698021C9020A435A615B6963
:100270000B400193019B1A4F80239846BB62194A99
:1002800093680F218B4393609022D205D3680C3979
:100290008B4301242343D36013688B4313600A9478
:1002A0002C7100266E71AC71280000F03BFB4346B8
:1002B0000493059406960796089604A9380000F062
:1002C0007CFA00220021052000F066FD052000F0E8
:1002D00093FD0CB080BCB846F0BDC0460010024093
:1002E000000400480000014082B003004000C01834
:1002F0000023019304E0C046C046019B01330193F3
:10030000019B8342F7D302B07047000070B5142000
:10031000FFF7EAFF0A4CA36980252D022B43A36156
:100320001420FFF7E1FFA26980231B061343A3619A
:100330001420FFF7D9FFA3691D43A56170BDC04616
:100340000008004810B50400474A91698023DB0586
:100350000B43936143B2002B49DB9022D205916994
:1003600080231B060B439361630648D59022D20578
:10037000916980235B010B439361A30647D53B4AF8
:10038000916980239B000B439361E30646D5374A6E
:10039000916980235B000B439361FFF7B7FF23074D
:1003A00043D59022D205916980231B020B439361B0
:1003B000630742D59022D205916980235B010B43EC
:1003C0009361A30741D5294A916980239B000B4380
:1003D0009361E30740D5254A916980235B000B4375
:1003E0009361FFF793FF2248FFF77EFF10BD902235
:1003F000D205916980231B020B439361B4E79022DD
:10040000D205916980235B050B439361B5E7174AD9
:10041000916980239B040B439361B6E7134A91696A
:1004200080235B040B439361B7E79022D205916967
:1004300080231B060B439361BAE79022D205916992
:1004400080235B050B439361BBE7084A91698023D6
:100450009B040B439361BCE7044A916980235B04CE
:100460000B439361BDE7C046000800480004004804
:10047000B80B000010B51B4B5969802292020A4349
:100480005A6159698022D2020A435A61596980220D
:1004900012030A435A619022D20511688223DB05B8
:1004A0000B431360104A1168A023DB020B43136057
:1004B0000E4A1168A023DB050B4313600C48FFF7BD
:1004C00013FF3320FFF73EFF3220FFF73BFF0C20E6
:1004D000FFF738FF2820FFF735FF0120FFF732FF35
:1004E00010BDC0460010024000040048000800484B
:1004F0003075000010B500F0FDF9124B1B68C01AF2
:10050000FA235B00984203D2012000F073FD10BD76
:100510000D4C8021200000F064FD8021200000F0BF
:1005200059FD012808D0FA20800000F0E9F900F018
:10053000E1F9044B1860E7E7F930400000F0E0F91A
:10054000F5E7C046B80000200004004810B5054C8F
:10055000200000F00DFB044B1860200000F00EFBA3
:1005600010BDC046300000202C00002072B6FEE70F
:1005700000B585B00C22002101A801F0D1F9214875
:10058000214B0360002343608360C360012202614A
:1005900004214161037643768376C376C221FF311D
:1005A000C16103629E39FF394354826200F01EFA32
:1005B000002822D10623019380235B01029380232C
:1005C0005B05039301A90F4800F040FB002816D1FA
:1005D0000D4A916880231B060B4393600A4B9B686E
:1005E000002BFBDB084A936801210B439360064B09
:1005F0001B68DB07FBD505B000BDFFF7B7FFFFF7B2
:10060000B5FFC046300000200024014000B58FB087
:10061000102200210AA801F083F90822002108A86D
:1006200001F07EF91C22002101A801F079F920488F
:10063000204B03600023436083601F4AC260036154
:10064000836100F02DFE002828D180235B010A93EE
:100650000AA9174800F044FF002821D1144800F0EF
:100660004BFE00281ED100230893099308A91048C7
:1006700001F046F8002817D160230193002302936C
:1006800003930593082201A9094800F0A5FE00285C
:100690000CD1074801F0C8F80FB000BDFFF766FFA6
:1006A000FFF764FFFFF762FFFFF760FFFFF75EFFF2
:1006B00070000020000400407FBB000010B5244AF9
:1006C000136801218B431360214B1B68DB07FBD4AC
:1006D000204A136801210B4313601E4B1B689B07C4
:1006E000FBD51C4A1368F8218B4378390B43136000
:1006F000536B7F390B435363164B5B6B9B07FBD5E7
:10070000144B5A6BF8218A4378390A435A635A6862
:1007100070318A435A605A680F490A405A605A68D1
:1007200003218A435A600B4B5B680C221A42FAD1B0
:100730000A4801F0A1F8032000F098F8002805D13C
:10074000044A536B04218B43536310BDFFF70EFF24
:100750000020024000100240FFF8FFFF00127A0064
:1007600010B500F0ABF8FFF7A9FFFFF759FDFFF751
:10077000FFFEFFF74BFFFFF77DFE0821074800F063
:1007800041FF8021064800F02CFC044B1B6800222E
:10079000DA63044B186800F0B3F8F2E77000002049
:1007A0000004004800000020FEE7FEE770477047A5
:1007B00010B500F093F810BD7047F0B5002216E0B8
:1007C000C6682B006B435F00FF18FC43A446BE4382
:1007D0000F695F433E43C6604C68022C27D0046813
:1007E00065462C404D686B432343036001320C681F
:1007F0002300D34037D00123934025001D401C42E5
:10080000F4D04B68013B012BDAD883682C006C4391
:1008100066003619B3438E687443234383600C68C3
:100820004368A343CE68744323434360C8E7FF2D66
:100830000BD8066A1C006C4365432C01641BA6435D
:100840004C69654335430562C9E7466A2D0A2C00A9
:100850006C436C4365432C01641BA6434C696543A0
:1008600035434562BBE70020F0BD000010B5040031
:100870000F4B1978FA208000FFF746FC01000D4B62
:100880001868FFF741FC00F0C3FA00280DD1032CD3
:1008900001D901200AE0013000222100404200F08D
:1008A0007BFA054B1C60002000E0012010BDC04613
:1008B00008000020040000200C00002010B5064AAB
:1008C000136810210B4313600320FFF7CFFF00F0E4
:1008D0004DFF002010BDC04600200240034A1168B1
:1008E000034B1B785B1813607047C046BC000020A8
:1008F00008000020014B18687047C046BC0000206B
:1009000070B50400FFF7F6FF0500631C02D0044B2E
:100910001B78E418FFF7EEFF401BA042FAD370BD2E
:100920000800002010B503000079002850D01A6894
:10093000002A57D05879012818D0022820D0002842
:100940000BD001209A79002A4BD0022A2CD0032AFE
:1009500034D0012A1ED0012043E023494C6894433F
:100960004C600A681C6822430A60EBE71E4908686D
:10097000904308604A68186802434A600020E1E733
:100980001949086802430A604A68186802434A60C5
:100990000020D7E7144AD1681C68A143D1601B68C6
:1009A00091680B4393601CE00F4A91681C68A14357
:1009B00091601B68D1680B43D36012E00A4A9168CA
:1009C0001C68214391601B68D1680B43D36008E029
:1009D000054A11681C68A1431160196853688B436C
:1009E000536010BD0020FCE70004014070B5041EF8
:1009F00000D1B4E0836B002B00D180E0A36BDB0659
:100A000000D5A6E022689168042005000D40084248
:100A100000D09EE0A16B534B19400633FF331943BE
:100A2000A163916801330B40012B6ED0D36818216C
:100A30008B43A1680B43D360226813699B009B081A
:100A400061680B4313612268D36847490B40D36048
:100A5000237E9B03627ED2031343A17E4A0313438A
:100A6000A26A012A58D0802252011343E26813433C
:100A70002269022A52D02B432422A25C5200134343
:100A8000E27E012A4CD0E269C221FF318A4202D0C3
:100A9000216A0A4313432168CA681A43CA60E26A9A
:100AA000802149058A420DD0012A0BD0022A09D0A3
:100AB000032A07D0042A05D0052A03D0062A01D02C
:100AC000072A0AD1206841690722914341612068C1
:100AD0004169E56A2A400A4342612268D268234993
:100AE0000A409A422BD0A36B12229343023A13433B
:100AF000A363E36B0F3A1343E36301202EE0C36368
:100B00003422835400F04AFE78E71368DB079AD456
:100B1000D3681B0497D489E72A00A6E70425AAE72F
:100B2000002903D1802252021343ACE7A26B20219B
:100B30000A43A263E26B1F390A43E263A3E700237F
:100B4000E363A36B03229343023A1343A36300209E
:100B500004E0A36B10221343A363012070BD0120A6
:100B6000FCE7C046FDFEFFFF1902FEFFE7FF3F83E3
:100B70000368186C704770477047704770B5040081
:100B800003681D685E686A0701D5720703D42A07E7
:100B900027D5320725D5A26BD20604D4A16B8022BB
:100BA00092000A43A263D968C0221201114212D1F5
:100BB000A27E002A0FD12A070DD59A6852072DD49C
:100BC0005A680C218A435A60A36B1F4A13400432AF
:100BD000FF321343A3632000FFF7CDFF23680C22ED
:100BE0001A602B0601D5330621D4EB0615D5F30682
:100BF00013D5A36A012B03D02368DB68DB0709D573
:100C0000E36B02221343E36323680E321A60200071
:100C1000FFF7B3FF236810221A6070BDA36B202278
:100C20001343A363E36B1F3A1343E363D3E7A26B5E
:100C300080235B021343A3632000FFF79DFF23681B
:100C400080221A60D1E7C046FEFEFFFF30B583B0B8
:100C50000400002301933433C35C012B00D18AE0EC
:100C600034230122C25403689A68520775D4434A58
:100C70004868904256D09A6A01200D68A840024305
:100C80009A62E36A8022520593421ED0012B1CD047
:100C9000022B1AD0032B18D0042B16D0052B14D0FE
:100CA000062B12D0072B10D022685069072303406F
:100CB0008868984209D0506907239843506120689A
:100CC00042698D682B40134343610B681A00103A48
:100CD000022A4CD82A4A1268102B0ED0112B09D0A8
:100CE00080235B041343264A13600B68102B07D044
:100CF000002037E08023DB03F4E780231B04F1E7C7
:100D0000204B18682049FFF7FFF983001B185B0090
:100D1000019302E0019B013B0193019B002BF9D160
:100D200000201FE09A6A01200D68A84082439A6261
:100D30000B681A00103A022A1BD8114A1268102BAD
:100D400009D0112B05D0114B13400D4A1360002020
:100D500008E00F4BF8E70F4BF6E7836B20221343B5
:100D60008363012034230022E25403B030BD00200D
:100D7000F8E70020F6E70220F7E7C0460110000080
:100D8000082701400400002040420F00FFFFFFFE43
:100D9000FFFFBFFFFFFF7FFF70B5002811DB830857
:100DA000134EC0339B009D5903242040C000FF22F6
:100DB00014008440A54389010A4082402A439A5185
:100DC00070BD0F230340083B9B0806339B00094A74
:100DD000944663445C6803221040C000FC32150056
:100DE0008540AC4389010A40824022435A60E7E7CC
:100DF00000E100E000ED00E0002805DB1F231840C3
:100E00001E3B8340014A13607047C04600E100E08A
:100E1000013880235B0498420FD2094A5060094888
:100E2000036A1B021B0AC02109060B43036200234D
:100E3000936007331360002070470120FCE7C04631
:100E400010E000E000ED00E0F0B583B0002357E0D3
:100E500084685F000326BE40B4432600CC68BC40D3
:100E600034438460446894434A681609012232403E
:100E70009A402243426053E0DC080834A40026581C
:100E800005321A4092000F279740BE430F699740E2
:100E90003A003243225057E0032600E00026A640E5
:100EA00034003C4302329200444E9451444A9468C8
:100EB000EA432600AE434F68FF0201D52C432600CB
:100EC0003F4CA660E468260016404F68BF0201D57B
:100ED0002C4326003A4CE6606468260016404F68B2
:100EE000BF0301D52C432600354C666024682240A0
:100EF0004E68F60301D52A002243314C22600133AB
:100F00000C682200DA4057D001229A402500154093
:100F10001442F4D003244E683440013C012C97D98C
:100F200003224C682240032A09D0C2685E000324D1
:100F3000B440A24314008A68B2402243C260032234
:100F40004C682240022A97D004685E0003221700F2
:100F5000B740BC434F683A40B24022430260C022CF
:100F600092024C681442CAD0164CA669012216435C
:100F7000A661A46922400192019A9A08941CA400D7
:100F80000E4EA75903241C40A4000F26A640B743C9
:100F90009026F605B04281D00B4EB04208D00B4EE1
:100FA000B04207D00A4EB04200D175E7052676E779
:100FB000012674E7022672E703B0F0BD000001408D
:100FC00000040140001002400004004800080048EE
:100FD000000C004803690B4201D00120704700203B
:100FE000FCE7426913000B401B04914319438161E4
:100FF0007047704710B5054B5B69184200D110BDB2
:10100000024B5861FFF7F5FFF9E7C04600040140C5
:1010100030B5036A012293430362036A426884691C
:101020007325AC430D682C430225AB438D682B43DD
:10103000144DA84208D0144DA84205D0134DA84223
:1010400002D0134DA84205D10825AB43CD682B43F0
:101050000425AB430B4DA84208D00B4DA84205D048
:101060000A4DA84202D00A4DA84205D1094D2A4096
:101070004D692A438D692A43426084614A6842630C
:10108000036230BD002C014000400140004401409B
:1010900000480140FFFCFFFF70B5036A194A134086
:1010A0000362036A4268C4697325AC430E68264331
:1010B000154C23408C6824022343144CA04219D0C1
:1010C000124CA04208D0124CA04205D0114CA042B4
:1010D00002D0114CA04207D1104C14404A691201B1
:1010E00022438C6925012A434260C6614A68C26373
:1010F000036270BD0A4C1C40CB681B022343094CA1
:101100002340DDE7FFFEFFFFFFFDFFFF002C014056
:10111000004001400044014000480140FFCFFFFF74
:10112000FFF7FFFFFFFBFFFF30B5036A134A1340D1
:101130000362026A4368C469114D2C400D682D0298
:101140002C43104D15408A6812032A430E4DA842C5
:1011500008D00E4DA84205D00D4DA84202D00D4D2D
:10116000A84204D10C4D2B404D69AD012B43436087
:10117000C4614B680364026230BDC046FFEFFFFFED
:10118000FF8CFFFFFFDFFFFF002C0140004001400C
:101190000044014000480140FFBFFFFF30B5036A33
:1011A000046A0125AC4304628469EF35AC43120143
:1011B00022430A24A3430B438261036230BD000033
:1011C00030B5036A1024A34303628469036A054DA2
:1011D0002C4012032243A024A34309011943826136
:1011E000016230BDFF0FFFFF8368702293430B4302
:1011F00007210B4383607047704700000368214A52
:10120000904206D08022D205904202D01E4A9042DF
:1012100003D1702293434A6813431A4A904212D072
:101220008022D20590420ED0174A90420BD0174A26
:10123000904208D0164A904205D0164A904202D0F9
:10124000154A904203D1154A1340CA6813438022BD
:1012500093434A69134303608B68C3620B688362DC
:10126000084B984208D00A4B984205D0094B984247
:1012700002D0094B984201D10B69036301234361FA
:101280007047C046002C0140000400400020004090
:10129000004001400044014000480140FFFCFFFFC6
:1012A00070B5041E26D03D23C35C002B1CD03D2509
:1012B00002236355210001C9FFF7A0FF0123462245
:1012C000A354083AA3540132A3540132A354013267
:1012D000A3540132A3540132A3540132A354013266
:1012E000A3546355002070BD3C330022C25400F06B
:1012F00085FADCE70120F6E770B5041E26D03D2311
:10130000C35C002B1CD03D2502236355210001C97D
:10131000FFF774FF01234622A354083AA354013275
:10132000A3540132A3540132A3540132A354013215
:10133000A3540132A3540132A3546355002070BD5D
:101340003C330022C254FFF757FFDCE70120F6E7E9
:1013500070B5036A102293430362036A426884698A
:10136000174D2C400D682D0225432024A3438C6883
:1013700024012343134CA04219D0124CA04208D0A0
:10138000114CA04205D0114CA04202D0104CA042FA
:1013900007D1104C14404A69920022438C69A60080
:1013A0003243426085614A688263036270BD802473
:1013B000A3431C00CB681B0123434024A343DCE769
:1013C000FF8CFFFF002C0140004001400044014021
:1013D00000480140FFF3FFFF70B504000D003C23FF
:1013E000C35C012B00D16AE03C230121C154082ACF
:1013F00050D01CD8002A38D0042A16D12900006801
:10140000FFF7A6FF2268916980231B010B439361BC
:10141000226893692B490B40936121688B692A6983
:10142000120213438B6100201BE0080019E00C2A14
:1014300016D129000068FFF777FE2268D169802362
:101440001B010B43D3612268D3691E490B40D36152
:101450002168CB692A6912021343CB61002000E0A6
:1014600001203C230022E25470BD29000068FFF7F0
:10147000CFFD2268936908210B4393612268936929
:1014800004398B4393612268936929690B43936103
:101490000020E6E729000068FFF7FEFD2268D36917
:1014A00008210B43D3612268D36904398B43D3618C
:1014B0002268D36929690B43D3610020D1E7022058
:1014C000D2E7C046FFFBFFFF30B58468034D2C40D8
:1014D0001B0213430B432343836030BDFF00FFFF18
:1014E00010B504003C23C35C012B00D178E03C2301
:1014F0000122C25401330132C25402689368394850
:10150000034093600B68602B50D02AD8402B58D0F2
:101510000CD9502B23D1CA6849682068FFF73EFEDA
:1015200050212068FFF760FE002005E0202B0ED040
:1015300009D9302B0BD001203D230122E254013B7D
:101540000022E25410BD002B01D0102B05D1190050
:101550002068FFF749FE0020EEE70120ECE70120BC
:10156000EAE780225201934236D0802292019342D0
:101570000DD1CB684A6889682068FFF7A5FF22680B
:1015800091688023DB010B4393600020D4E7702B2C
:1015900024D1CB684A6889682068FFF795FF2268E4
:1015A000936877210B4393600020C5E7CA684968B8
:1015B0002068FFF705FE60212068FFF715FE002078
:1015C000BAE7CA6849682068FFF7E8FD402120684B
:1015D000FFF70AFE0020AFE70020ADE70120ABE7F0
:1015E0000220AFE78800FFFF10B51F231940012438
:1015F0008C40036AA3430362036A8A401343036275
:1016000010BD000010B50400002936D13E23C35C94
:10161000013B5A1E9341DBB2002B62D1002945D118
:101620003E330222E25401222068FFF7DDFF2368E7
:101630002E4A934208D02E4A934205D02D4A934217
:1016400002D02D4A934204D1596C802212020A43DF
:101650005A642368254A934238D08022D2059342A7
:1016600034D0264A934231D0214A93422ED01A6870
:1016700001210A431A60002034E0042908D0082917
:101680000DD04123C35C013B5A1E9341DBB2C3E73B
:101690003F23C35C013B5A1E9341DBB2BCE74023AE
:1016A000C35C013B5A1E9341DBB2B5E7042905D068
:1016B000082907D041230222E254B4E73F23022243
:1016C000E254B0E740230222E254ACE799680722D3
:1016D0000A40062A07D01A6801210A431A6000202E
:1016E00000E0012010BD0020FCE7C046002C0140B6
:1016F0000040014000440140004801400004004017
:1017000030B53C23C35C012B28D03C230122C254BA
:1017100001330132C25403685A689C687025AA4399
:101720000D682A435A6003680D4A934209D080220B
:10173000D205934205D00B4A934202D00A4A934203
:1017400004D1802294434A6814439C603D230122C3
:10175000C254013B0022C254002030BD0220FCE7ED
:10176000002C0140000400400040014082B00A4BC0
:10177000996901221143996199690A400092009A7E
:10178000DA69802149050A43DA61DB690B4001937C
:10179000019B02B07047C0460010024010B588B0EF
:1017A00004001422002103A800F0BAF82268114BAB
:1017B0009A4201D008B010BD0F4B9969802080007B
:1017C000014399619A6902400192019A5A69802104
:1017D00089020A435A615B690B400293029B4023D2
:1017E00003933D3B04937138FF3803A9C005FFF70D
:1017F0002BFBDFE7002401400010024082B00268AA
:10180000074B9A4201D002B07047064AD1690223C1
:101810001943D161D26913400193019BF3E7C0469C
:10182000000400400010024010B586B004001422ED
:10183000002101A800F074F822680C4B9A4201D0F4
:1018400006B010BD0A4A51698020C00201435161AF
:10185000536903400093009B0123019302220292EB
:10186000059301A90348FFF7EFFAE9E700040040F8
:101870000010024000040048014B18607047C04649
:10188000040000200D488546FEF796FF0C480D49E0
:101890000D4A002302E0D458C4500433C4188C42CB
:1018A000F9D30A4A0A4C002301E013600432A24231
:1018B000FBD300F011F8FEF753FFFEE700200020F5
:1018C0000000002010000020501900081000002027
:1018D000C0000020FEE7000070B500260C4D0D4C46
:1018E000641BA410A64209D1002600F021F80A4D7D
:1018F0000A4C641BA410A64205D170BDB300EB587E
:1019000098470136EEE7B300EB5898470136F2E707
:101910004819000848190008481900084C1900081F
:1019200003008218934200D1704719700133F9E720
:10193000F8B5C046F8BC08BC9E467047F8B5C0462E
:08194000F8BC08BC9E4670478C
:04194800E9000008AA
:04194C00C1000008CE
:10195000F401000000127A00010000000400000001
:040000050800188552
:00000001FF
