:020000040800F2
:10000000002000208D1900088109000883090008DC
:1000100000000000000000000000000000000000E0
:10002000000000000000000000000000850900083A
:10003000000000000000000087090008890900088E
:10004000DD190008DD190008DD190008DD190008B8
:10005000DD1900082D060008DD190008DD1900086B
:10006000DD190008DD190008DD19000891090008F4
:10007000DD190008DD190008DD190008DD19000888
:10008000DD190008DD19000800000000DD19000876
:10009000DD190008DD190008DD190008DD19000868
:1000A000DD190008DD190008DD190008DD19000858
:1000B000DD19000800000000DD1900080000000044
:1000C00010B5064C2378002B07D1054B002B02D02E
:1000D000044800E000BF0123237010BD140C002071
:1000E00000000000381A0008044B10B5002B03D0A4
:1000F0000349044800E000BF10BDC04600000000F6
:10010000180C0020381A0008002243088B4274D3D0
:1001100003098B425FD3030A8B4244D3030B8B4208
:1001200028D3030C8B420DD3FF22090212BA030C11
:100130008B4202D31212090265D0030B8B4219D3F2
:1001400000E0090AC30B8B4201D3CB03C01A524112
:10015000830B8B4201D38B03C01A5241430B8B425A
:1001600001D34B03C01A5241030B8B4201D30B0343
:10017000C01A5241C30A8B4201D3CB02C01A52416A
:10018000830A8B4201D38B02C01A5241430A8B422D
:1001900001D34B02C01A5241030A8B4201D30B0216
:1001A000C01A5241CDD2C3098B4201D3CB01C01A30
:1001B000524183098B4201D38B01C01A524143093A
:1001C0008B4201D34B01C01A524103098B4201D328
:1001D0000B01C01A5241C3088B4201D3CB00C01A95
:1001E000524183088B4201D38B00C01A524143080D
:1001F0008B4201D34B00C01A5241411A00D2014632
:10020000524110467047FFE701B5002000F006F8A4
:1002100002BDC0460029F7D076E770477047C04658
:1002200010B586B004AC08220021200001F0D7FBF5
:100230001E4B5A698021C9030A435A615A690A4010
:100240000392039A5A69802189020A435A615A69C2
:100250000A400292029A5A698021C9020A435A61ED
:100260005B690B400193019B114A93680F218B43FB
:1002700093609021C905CB68032083430122134377
:10028000CB600B6883430B6004922271002363717F
:10029000A271200000F0D0FB00220021052000F018
:1002A0002FFC052000F05CFC06B010BD00100240E1
:1002B0000000014000B583B0094A51690123194388
:1002C0005161526913400193019B002200210B20D0
:1002D00000F016FC0B2000F043FC03B000BDC0464C
:1002E0000010024082B003004000C01800230193B8
:1002F00004E0C046C046019B01330193019B834249
:10030000F7D302B07047000070B51420FFF7EAFF82
:100310000A4CA36980252D022B43A3611420FFF70B
:10032000E1FFA26980231B061343A3611420FFF79A
:10033000D9FFA3691D43A56170BDC04600080048F0
:1003400010B50400454A91698023DB010B4393619A
:1003500043B2002B46DB9022D205916980231B0615
:100360000B439361630645D59022D20591698023A2
:100370005B010B439361A30644D5394A91698023FD
:100380009B000B439361E30643D5354A9169802373
:100390005B000B439361FFF7B7FF230740D5902223
:1003A000D205916980231B020B43936163073FD5FC
:1003B0009022D205916980235B010B439361A307CF
:1003C0003ED5274A916980239B000B439361E40744
:1003D0003DD5234A916980235B000B439361FFF76E
:1003E00093FF10BD9022D205916980231B020B431D
:1003F0009361B7E79022D205916980235B050B4397
:100400009361B8E7164A916980239B040B4393617B
:10041000B9E7134A916980235B040B439361BAE700
:100420009022D205916980231B060B439361BDE79F
:100430009022D205916980235B050B439361BEE74F
:10044000074A916980239B040B439361BFE7044AE9
:10045000916980235B040B439361C0E70008004867
:100460000004004870B50500002403E0FFF768FFB2
:100470000134E4B2285D0028F8D170BD10B5040045
:10048000474A91698023DB050B43936143B2002BFC
:1004900049DB9022D205916980231B060B439361AF
:1004A000630648D59022D205916980235B010B43F6
:1004B0009361A30647D53B4A916980239B000B4378
:1004C0009361E30646D5374A916980235B000B436D
:1004D0009361FFF719FF230743D59022D205916955
:1004E00080231B020B439361630742D59022D20500
:1004F000916980235B010B439361A30741D5294A8E
:10050000916980239B000B439361E40740D5254A02
:10051000916980235B000B439361FFF7F5FE22484E
:10052000FFF7E0FE10BD9022D205916980231B02E7
:100530000B439361B4E79022D205916980235B0558
:100540000B439361B5E7174A916980239B040B43E2
:100550009361B6E7134A916980235B040B4393616F
:10056000B7E79022D205916980231B060B43936164
:10057000BAE79022D205916980235B050B43936112
:10058000BBE7084A916980239B040B439361BCE756
:10059000044A916980235B040B439361BDE7C04625
:1005A0000008004800040048B80B000010B51B4BC1
:1005B0005969802292020A435A6159698022D20203
:1005C0000A435A615969802212030A435A619022F0
:1005D000D20511688223DB050B431360104A1168B2
:1005E000A023DB020B4313600E4A1168A023DB0536
:1005F0000B4313600C48FFF775FE3320FFF73EFFF7
:100600003220FFF73BFF0C20FFF738FF2820FFF7D1
:1006100035FF0120FFF732FF10BDC0460010024039
:1006200000040048000800483075000010B500F0D4
:10063000FDF9304B1860304B1B68C31AC82B03D828
:10064000012000F081FC10BD2B4B18602B4B1A6869
:10065000D3682B490B40D3602A4800F034FB2A4A68
:1006600013780133DBB21370042B0BD0264B1B78AD
:10067000022B21D0032B2ED0012B07D0224B00229E
:100680001A7011E0130001221A70EFE77F331F4A3E
:1006900012681F491B485B0000F0DAFA0120FFF7DF
:1006A000EDFE1C48FFF7DEFE144B1A68D16880236C
:1006B0009B000B43D360C3E78023144A126816499A
:1006C00010485B0000F0C4FA0120FFF7D7FE134882
:1006D000FFF7C8FEE8E780230C4A12681049094872
:1006E0005B0000F0B5FA0120FFF7C8FE0D48FFF7E8
:1006F000B9FED9E7340C00200C0D00207C0C002042
:10070000FFFDFFFF380C0020300C0020000000200F
:1007100004000020501A000808040020581A00089D
:10072000080800205C1A000872B6FEE700B58FB01A
:10073000102200210AA801F052F90822002108A87D
:1007400001F04DF91C22002101A801F048F92048D0
:100750008023DB0503600023436083601D4A126829
:10076000013AC26003618033836100F045FD0028D7
:1007700024D180235B010A9315480AA900F0B6FE34
:1007800000281DD1124800F063FD00281AD1002373
:10079000089309930E4808A901F036F8002813D1F0
:1007A000002301930293039305930948002201A9B2
:1007B00000F0EAFD002809D10FB000BDFFF7B4FF3B
:1007C000FFF7B2FFFFF7B0FFFFF7AEFFFFF7ACFF99
:1007D0007C0C00200404002000B58FB01022002102
:1007E0000AA801F0FCF80822002108A801F0F7F897
:1007F0001C22002101A801F0F2F82148214B0360DE
:10080000002343608360204AC260036180338361B8
:1008100000F0F2FC002828D180235B010A931848DD
:100820000AA900F063FE002821D1154800F03CFD24
:1008300000281ED1002308930993114808A900F04D
:10084000E3FF002817D16023019300230293039351
:1008500005930B48082201A900F0C4FD00280CD123
:10086000074801F065F80FB000BDFFF75DFFFFF727
:100870005BFFFFF759FFFFF757FFFFF755FFC04634
:10088000C40C002000040040FF03000010B51A4A09
:10089000136801218B431360174B1B68DB07FBD4E4
:1008A000164A136801210B431360144B1B689B0706
:1008B000FBD5124B1A68F8218A4378390A431A602B
:1008C0005A6870318A435A605A680D490A405A6022
:1008D0005A6803218A435A60084B5B680C221A420B
:1008E000FAD1084801F04CF8032000F05BF800282A
:1008F00000D110BDFFF718FF002002400010024099
:10090000FFF8FFFF00127A0010B500F073F8FFF750
:100910004DFEFFF7BBFFFFF783FCFFF7CBFCFFF7B4
:1009200005FFFFF759FF0F48082100F0EFFE0E4CBE
:100930000021200000F06CFE80230C4A12680C4954
:100940000C485B0000F084F90B48FFF78BFD0B4867
:10095000FFF7C8FC2268D16880239B000B43D3605B
:10096000FEE7C046C40C00207C0C002000000020E4
:1009700004000020380C0020501A0008B80B0000BA
:10098000FEE7FEE77047704710B500F043F810BD72
:1009900010B5024800F0BCF910BDC046380C00206C
:1009A0007047000010B504000F4B1978FA20800042
:1009B000FFF7AAFB01000D4B1868FFF7A5FB00F03D
:1009C000DBF800280DD1032C01D901200AE0013009
:1009D00000222100404200F093F8054B1C600020EB
:1009E00000E0012010BDC0460C0C0020080C0020C7
:1009F000100C002010B5064A136810210B43136039
:100A00000320FFF7CFFF00F035FF002010BDC046E8
:100A100000200240034A1168034B1B785B181360E7
:100A20007047C046100D00200C0C0020014B1868C8
:100A30007047C046100D002010B503000079002853
:100A400050D01A68002A57D05879012818D00228A7
:100A500020D000280BD001209A79002A4BD0022AFE
:100A60002CD0032A34D0012A1ED0012043E0234990
:100A70004C6894434C601A680C6822430A60EBE7A8
:100A80001E490868904308601A68486802434A6033
:100A90000020E1E71949086802430A601A684868BB
:100AA00002434A600020D7E71C68144AD168A1437A
:100AB000D1601B6891680B4393601CE01C680F4A6F
:100AC0009168A14391601B68D1680B43D36012E029
:100AD00019680A4A9468214391601B68D1680B43E6
:100AE000D36008E01C68054A1168A14311601968C9
:100AF00053688B43536010BD0020FCE700040140A5
:100B000070B5002811DB8308134DC0339B005C597E
:100B100003221040C000FC3216008640B443890115
:100B20000A40824022435A5170BD0F230340083BC4
:100B30009B0806339B00094A944663445C68032281
:100B40001040C000FC3215008540AC4389010A40CA
:100B5000824022435A60E7E700E100E000ED00E058
:100B6000002805DB1F2318401E3B8340014A136009
:100B70007047C04600E100E0013880235B049842E2
:100B80000FD2094A50600948036A1B021B0AC021A0
:100B900009060B43036200239360073313600020B0
:100BA00070470120FCE7C04610E000E000ED00E0E7
:100BB00070B5066CC56B0124B4406C60046863605A
:100BC0004368102B04D0036899600368DA6070BD35
:100BD00003689A600368D960F9E7000010B5040063
:100BE0000068054B9C4660441421FFF78DFA800095
:100BF0002064024BE36310BDF8FFFDBF000002401C
:100C000070B5041E20D021250223435501680A68CF
:100C10000E4B1A40436880680343E0680343206931
:100C2000034360690343A0690343E069034313433B
:100C30000B602000FFF7D2FF0023A363012262555F
:100C40001F32A354002070BD0120FCE70FC0FFFF3E
:100C500070B504002020205C012832D0202001251E
:100C600025540130205C012804D020230022E254C6
:100C7000022070BD2030013525540020A063256876
:100C800028680126B04328602000FFF791FFE36A3F
:100C9000002B0BD0226813680E210B4313602268CF
:100CA000136801210B4313600020E2E722681368F8
:100CB0000A210B4313602268136806398B431360C3
:100CC000EDE70220D5E710B52123C35C022B03D04A
:100CD00004238363012010BD026813680E218B4337
:100CE000136001680A6801239A430A60016CC26BB1
:100CF0001C008C405460212283541F330022C254B4
:100D0000436B002B02D098470020E4E70020E2E785
:100D100070B5C36B1A6804682568016C04238B40A6
:100D20001A4212D06B0710D523689B0603D42368A0
:100D3000042293432360016CC26B04238B405360F5
:100D4000C36A002B00D0984770BD02238B401A4223
:100D500018D0AB0716D523689B0606D423680A2251
:100D6000934323602123093AC254016CC26B0223CE
:100D70008B40536020230022C254836A002BE3D0AF
:100D80009847E1E708238B401A42DDD02D07DBD5D9
:100D900023680E2293432360016CC26B01231C0065
:100DA0008C4054608363212283541F330022C25439
:100DB000036B002BC8D09847C6E70000F0B583B09E
:100DC000002356E086685F000324BC40A643CC683D
:100DD000BC4034438460446894434E683609012221
:100DE00032409A402243426053E0DE080836B600A3
:100DF000375805321A4092000F249440A7430C69DB
:100E0000944022003A43325056E0032600E0002688
:100E1000A64034003C4302329200444E9451444A6E
:100E20009768EA433E00AE434C68E40201D53E00B9
:100E30002E433F4CA660E7683E0016404C68A40273
:100E400001D53E002E433A4CE66067683E001640EE
:100E50004C68A40301D53E002E43354C66602668DD
:100E600032404C68E40301D52A003243304C226002
:100E700001330C682200DA4056D001229A40250046
:100E800015401442F4D04E6803243440013C012C38
:100E900098D94C6803222240032A08D0C4685E0017
:100EA0000322B24094438A68B2402243C2604C6835
:100EB00003222240022A98D004685E000322170011
:100EC000B740BC434F683A40B240224302604C688E
:100ED000C02292021442CBD0164CA66901221643BE
:100EE000A661A46922400192019A9A08941CA40068
:100EF0000E4EA75903241C40A4000F26A640B7435A
:100F00009026F605B04282D00B4EB04208D00B4E70
:100F1000B04207D00A4EB04200D176E7052677E707
:100F2000012675E7022673E703B0F0BD000001401B
:100F3000000401400010024000040048000800487E
:100F4000000C00487047000010B5054B5B69184263
:100F500000D110BD024B5861FFF7F4FFF9E7C0461E
:100F60000004014030B5036A012293430362056A1D
:100F7000426883697324A3430C681C4302239D4386
:100F80008B682B43154DA84208D0154DA84205D0BB
:100F9000144DA84202D0144DA84206D10825AB43F7
:100FA0001D00CB682B430425AB430C4DA84208D051
:100FB0000B4DA84205D00B4DA84202D00A4DA842C5
:100FC00005D10A4D2A404D6915438A692A4342607A
:100FD00084614A684263036230BDC046002C014010
:100FE000004001400044014000480140FFFCFFFF79
:100FF00030B5036A194A13400362046A4268C36940
:101000007325AB430D681D43154B1C408B681B02B9
:101010002343144CA04219D0124CA04208D0124CC9
:10102000A04205D0114CA04202D0114CA04207D1E1
:10103000104C22404C69240114438A691201224356
:101040004260C5614A68C263036230BD0A4C1C40FD
:10105000CB681B022343094C2340DDE7FFFEFFFF63
:10106000FFFDFFFF002C0140004001400044014013
:1010700000480140FFCFFFFFFFF7FFFFFFFBFFFF2F
:1010800030B5036A134A13400362046A4368C269B5
:10109000114D2A400D682D021543104A14408A68EC
:1010A000120322430E4CA04208D00E4CA04205D0A1
:1010B0000D4CA04202D00D4CA04204D10C4C1C405F
:1010C0004B699B0123434360C5614B680364026223
:1010D00030BDC046FFEFFFFFFF8CFFFFFFDFFFFFCC
:1010E000002C014000400140004401400048014004
:1010F000FFBFFFFF30B5036A046A0125AC430462F9
:101100008469EF35AC43120122430A24A3430B4305
:101110008261036230BD000030B5036A1024A3432E
:1011200003628469036A054D2C4012032243A02404
:10113000A343090119438261016230BDFF0FFFFF24
:101140008368702293430B43693A1343836070476B
:10115000704770470368214A904206D08022D2052A
:10116000904202D01E4A904203D1702293434A68B3
:1011700013431A4A904212D08022D20590420ED0D8
:10118000174A90420BD0174A904208D0164A904214
:1011900005D0164A904202D0154A904203D1154A12
:1011A0001A40CB681343802293434A691343036078
:1011B0008B68C3620B688362084B984208D00A4B65
:1011C000984205D0094B984202D0094B984201D170
:1011D0000B690363012343617047C046002C014043
:1011E0000004004000200040004001400044014055
:1011F00000480140FFFCFFFF70B5041E26D03D23D0
:10120000C35C002B1CD03D2502236355210001C97E
:10121000FFF7A0FF01234622A354083AA35401324A
:10122000A3540132A3540132A3540132A354013216
:10123000A3540132A3540132A3546355002070BD5E
:101240003C330022C25400F02DFBDCE70120F6E71E
:1012500070B5041E26D03D23C35C002B1CD03D2559
:1012600002236355210001C9FFF774FF01234622C1
:10127000A354083AA3540132A3540132A3540132B7
:10128000A3540132A3540132A3540132A3540132B6
:10129000A3546355002070BD3C330022C254FFF7B5
:1012A00057FFDCE70120F6E770B5041E26D03D238A
:1012B000C35C002B1CD03D2502236355210001C9CE
:1012C000FFF748FF01234622A354083AA3540132F2
:1012D000A3540132A3540132A3540132A354013266
:1012E000A3540132A3540132A3546355002070BDAE
:1012F0003C330022C254FFF72CFFDCE70120F6E765
:1013000070B5036A102293430362026A44688369DA
:10131000174D2B400D682D021D4320239A438B68E7
:101320001B011343134A904219D0124A904208D02D
:10133000114A904205D0114A904202D0104A904280
:1013400007D1104A14404A69920022438C69A400D4
:101350001443446085614A688263036270BD8022E1
:1013600093431E00CB681B013343403A9343DCE7B1
:10137000FF8CFFFF002C0140004001400044014071
:1013800000480140FFF3FFFF10B504003C23C35C9D
:10139000012B24D03C230120E054082A1AD008D87D
:1013A000002A12D0042A0CD12068FFF7A9FF0020E0
:1013B00007E00C2A04D12068FFF762FE002000E05D
:1013C00001203C230022E25410BD2068FFF7CAFD33
:1013D0000020F6E72068FFF70BFE0020F1E702206F
:1013E000F2E7000070B504000D003C23C35C012B44
:1013F00000D16AE03C230121C154082A50D01CD8F6
:10140000002A38D0042A16D100682900FFF778FF97
:101410002268916980231B010B43936122689369C1
:101420002B490B40936121688B692A69120213438F
:101430008B6100201BE0080019E00C2A16D100681F
:101440002900FFF71DFE2268D16980231B010B4391
:10145000D3612268D3691E490B40D3612168CB69EF
:101460002A6912021343CB61002000E001203C23D3
:101470000022E25470BD00682900FFF773FD226866
:10148000936908210B4393612268936904398B4364
:1014900093612268936929690B4393610020E6E711
:1014A00000682900FFF7A4FD2268D36908210B43D7
:1014B000D3612268D36904398B43D3612268D3692D
:1014C00029690B43D3610020D1E70220D2E7C0464F
:1014D000FFFBFFFF30B58468034D2C401B02134314
:1014E0000B432343836030BDFF00FFFF10B50400B2
:1014F00008003C23E35C012B00D177E03C23012270
:10150000E25401330132E2542268936838490B40B7
:101510009360016860294FD029D8402957D00CD951
:10152000502922D14168C2682068FFF7E3FD206896
:101530005021FFF705FE002005E020290ED009D933
:1015400030290BD001203D230122E254013B00222F
:10155000E25410BD002901D0102904D12068FFF702
:10156000EFFD0020EFE70120EDE70120EBE780220F
:101570005201914236D08022920191420DD1816870
:101580004268C3682068FFF7A5FF2268916880233E
:10159000DB010B4393600020D5E7702924D18168DB
:1015A0004268C3682068FFF795FF22689368772137
:1015B0000B4393600020C6E74168C2682068FFF7CC
:1015C000ABFD20686021FFF7BBFD0020BBE7416851
:1015D000C2682068FFF78EFD20684021FFF7B0FD4C
:1015E0000020B0E70020AEE70120ACE70220B0E722
:1015F0008800FFFF10B51F23194001248C40036AA7
:10160000A3430362036A8A401343036210BD0000D0
:1016100010B50400002936D13E23C35C013B5A1E9D
:101620009341DBB2002B62D1002945D13E33022227
:10163000E25420680122FFF7DDFF23682E4A93421F
:1016400008D02E4A934205D02D4A934202D02D4A0B
:10165000934204D1596C802212020A435A642368CF
:10166000254A934238D08022D205934234D0264A6C
:10167000934231D0214A93422ED01A6801210A4365
:101680001A60002034E0042908D008290DD0412335
:10169000C35C013B5A1E9341DBB2C3E73F23C35CEB
:1016A000013B5A1E9341DBB2BCE74023C35C013BC4
:1016B0005A1E9341DBB2B5E7042905D0082907D0AB
:1016C00041230222E254B4E73F230222E254B0E76E
:1016D00040230222E254ACE7996807220A40062A16
:1016E00007D01A6801210A431A60002000E0012097
:1016F00010BD0020FCE7C046002C01400040014026
:1017000000440140004801400004004010B50400BE
:10171000002936D13E23C35C013B5A1E9341DBB204
:10172000002B62D1002945D13E330222E2542068C9
:101730000122FFF75FFF23682E4A934208D02E4A0A
:10174000934205D02D4A934202D02D4A934204D1B0
:10175000596C802212020A435A642368254A934234
:1017600038D08022D205934234D0264A934231D0D9
:10177000214A93422ED01A6801210A431A600020A0
:1017800034E0042908D008290DD04123C35C013B73
:101790005A1E9341DBB2C3E73F23C35C013B5A1E91
:1017A0009341DBB2BCE74023C35C013B5A1E93412B
:1017B000DBB2B5E7042905D0082907D0412302226E
:1017C000E254B4E73F230222E254B0E7402302226E
:1017D000E254ACE7996807220A40062A07D01A6843
:1017E00001210A431A60002000E0012010BD002002
:1017F000FCE7C046002C014000400140004401408D
:10180000004801400004004030B53C23C35C012B7C
:1018100028D03C230122C25401330132C254036850
:101820005C689D686E3294430A6822435A6003687C
:101830000D4A934209D08022D205934205D00B4A2B
:10184000934202D00A4A934204D1802295434A68C7
:101850002A439A603D230122C254013B0022C25414
:10186000002030BD0220FCE7002C014000040040B5
:101870000040014082B00A4B9969012211439961ED
:1018800099690A400092009ADA69802149050A4361
:10189000DA61DB690B400193019B02B07047C046DF
:1018A0000010024010B582B0040003688022D20507
:1018B000934204D01A4A934227D002B010BD194A6D
:1018C000D16901231943D161D26913400093009B70
:1018D0001548164B03601023436000238360802269
:1018E000C2608132FF3202618022120142612022F5
:1018F0008261C361FFF784F9002803D10A4B636258
:101900005C62DAE7FEF710FFF8E7064AD1690223C6
:101910001943D161D26913400193019BCDE7C046C1
:101920000004004000100240380C00205800024023
:1019300010B586B004001422002101A800F04FF871
:1019400022680C4B9A4201D006B010BD0A4B5A696E
:101950008021C9020A435A615B690B400093009BD6
:101960000123019302220292059301A90348FFF784
:1019700025FAE9E700040040001002400004004896
:10198000014B18607047C046080C00200D48854682
:10199000FFF706F80C480D490D4A002302E0D45821
:1019A000C4500433C4188C42F9D30A4A0A4C0023A9
:1019B00001E013600432A242FBD300F019F8FEF7F5
:1019C000A3FFFEE70020002000000020140C0020F0
:1019D000701A0008140C0020140D0020FEE703000C
:1019E0008218934200D1704719700133F9E7000063
:1019F00070B500260C4C0D4D641BA410A64209D1F5
:101A0000002600F019F80A4C0A4D641BA410A642E7
:101A100005D170BDB300EB5898470136EEE7B3002F
:101A2000EB5898470136F2E7681A0008681A000870
:101A30006C1A0008681A0008F8B5C046F8BC08BC63
:101A40009E467047F8B5C046F8BC08BC9E46704735
:101A500053696E650000000053617700547269613C
:081A60006E676C6500000000D8
:041A6800E900000889
:041A6C00C1000008AD
:101A70003C040040FF0100000B02000018020000BF
:101A800024020000310200003D0200004902000073
:101A900056020000620200006E0200007B0200009D
:101AA00087020000930200009F020000AB020000CA
:101AB000B6020000C2020000CE020000D9020000FF
:101AC000E4020000EF020000FA020000050300003B
:101AD000100300001A030000250300002F0300007C
:101AE00039030000430300004C03000056030000CC
:101AF0005F03000068030000710300007903000029
:101B0000810300008A030000910300009903000094
:101B1000A0030000A7030000AE030000B50300000F
:101B2000BB030000C1030000C7030000CC0300009A
:101B3000D2030000D7030000DB030000E003000035
:101B4000E4030000E7030000EB030000EE030000E5
:101B5000F1030000F4030000F6030000F8030000A6
:101B6000FA030000FB030000FC030000FD0300007B
:101B7000FD030000FE030000FD030000FD03000064
:101B8000FC030000FB030000FA030000F803000060
:101B9000F6030000F4030000F1030000EE03000070
:101BA000EB030000E7030000E4030000E003000093
:101BB000DB030000D7030000D2030000CC030000C9
:101BC000C7030000C1030000BB030000B503000011
:101BD000AE030000A7030000A0030000990300006B
:101BE000910300008A0300008103000079030000D4
:101BF00071030000680300005F030000560300004B
:101C00004C03000043030000390300002F030000D1
:101C1000250300001A030000100300000503000064
:101C2000FA020000EF020000E4020000D902000006
:101C3000CE020000C2020000B6020000AB020000AB
:101C40009F02000093020000870200007B02000058
:101C50006E0200006202000056020000490200000D
:101C60003D020000310200002402000018020000C2
:101C70000B020000FF010000F2010000E50100007E
:101C8000D9010000CC010000C0010000B401000037
:101C9000A70100009B0100008F01000082010000ED
:101CA000760100006A0100005E01000052010000A0
:101CB000470100003B0100002F010000240100004B
:101CC000190100000E01000003010000F8000000EF
:101CD000ED000000E3000000D8000000CE0000008E
:101CE000C4000000BA000000B1000000A70000001E
:101CF0009E000000950000008C00000084000000A1
:101D00007C000000730000006C0000006400000014
:101D10005D000000560000004F0000004800000079
:101D2000420000003C0000003600000031000000CE
:101D30002B00000026000000220000001D00000013
:101D40001900000016000000120000000F00000043
:101D50000C00000009000000070000000500000062
:101D6000030000000200000001000000000000006D
:101D70000000000000000000000000000000000063
:101D80000100000002000000030000000500000048
:101D900007000000090000000C0000000F00000018
:101DA0001200000016000000190000001D000000D5
:101DB00022000000260000002B000000310000007F
:101DC000360000003C000000420000004800000017
:101DD0004F000000560000005D000000640000009D
:101DE0006C000000730000007C0000008400000014
:101DF0008C000000950000009E000000A70000007D
:101E0000B1000000BA000000C4000000CE000000D5
:101E1000D8000000E3000000ED000000F800000022
:101E2000030100000E010000190100002401000060
:101E30002F0100003B01000047010000520100009B
:101E40005E0100006A0100007601000082010000CE
:101E50008F0100009B010000A7010000B4010000F9
:101E6000C0010000CC010000D9010000E501000024
:101E7000F2010000093D0000000000000300000026
:101E8000070000000B0000000F000000130000001E
:101E9000170000001B0000001F00000023000000CE
:101EA000270000002B0000002F000000330000007E
:101EB000370000003B0000003F000000430000002E
:101EC000470000004B0000004F00000053000000DE
:101ED000570000005B0000005F000000630000008E
:101EE000670000006B0000006F000000730000003E
:101EF000770000007B0000007F00000083000000EE
:101F0000870000008B0000008F000000930000009D
:101F1000970000009B0000009F000000A30000004D
:101F2000A7000000AB000000AF000000B3000000FD
:101F3000B7000000BB000000BF000000C3000000AD
:101F4000C7000000CB000000CF000000D30000005D
:101F5000D7000000DB000000DF000000E30000000D
:101F6000E7000000EB000000EF000000F3000000BD
:101F7000F7000000FB000000FF000000030100006C
:101F8000070100000B0100000F0100001301000019
:101F9000170100001B0100001F01000023010000C9
:101FA000270100002B0100002F0100003301000079
:101FB000370100003B0100003F0100004301000029
:101FC000470100004B0100004F01000053010000D9
:101FD000570100005B0100005F0100006301000089
:101FE000670100006B0100006F0100007301000039
:101FF000770100007B0100007F01000083010000E9
:10200000870100008B0100008F0100009301000098
:10201000970100009B0100009F010000A301000048
:10202000A7010000AB010000AF010000B3010000F8
:10203000B7010000BB010000BF010000C3010000A8
:10204000C7010000CB010000CF010000D301000058
:10205000D7010000DB010000DF010000E301000008
:10206000E7010000EB010000EF010000F3010000B8
:10207000F7010000FB010000FF0100000302000067
:10208000070200000B0200000F0200001302000014
:10209000170200001B0200001F02000023020000C4
:1020A000270200002B0200002F0200003302000074
:1020B000370200003B0200003F0200004302000024
:1020C000470200004B0200004F02000053020000D4
:1020D000570200005B0200005F0200006302000084
:1020E000670200006B0200006F0200007302000034
:1020F000770200007B0200007F02000083020000E4
:10210000870200008B0200008F0200009302000093
:10211000970200009B0200009F020000A302000043
:10212000A7020000AB020000AF020000B3020000F3
:10213000B7020000BB020000BF020000C3020000A3
:10214000C7020000CB020000CF020000D302000053
:10215000D7020000DB020000DF020000E302000003
:10216000E7020000EB020000EF020000F3020000B3
:10217000F7020000FB020000FF0200000303000062
:10218000070300000B0300000F030000130300000F
:10219000170300001B0300001F03000023030000BF
:1021A000270300002B0300002F030000330300006F
:1021B000370300003B0300003F030000430300001F
:1021C000470300004B0300004F03000053030000CF
:1021D000570300005B0300005F030000630300007F
:1021E000670300006B0300006F030000730300002F
:1021F000770300007B0300007F03000083030000DF
:10220000870300008B0300008F030000930300008E
:10221000970300009B0300009F030000A30300003E
:10222000A7030000AB030000AF030000B3030000EE
:10223000B7030000BB030000BF030000C30300009E
:10224000C7030000CB030000CF030000D30300004E
:10225000D7030000DB030000DF030000E3030000FE
:10226000E7030000EB030000EF030000F3030000AE
:10227000F7030000FB030000FF030000F70300006A
:10228000EF030000E7030000DF030000D7030000B6
:10229000CF030000C7030000BF030000B703000026
:1022A000AF030000A70300009F0300009703000096
:1022B0008F030000870300007F0300007703000006
:1022C0006F030000670300005F0300005703000076
:1022D0004F030000470300003F03000037030000E6
:1022E0002F030000270300001F0300001703000056
:1022F0000F03000007030000FF020000F7020000C8
:10230000EF020000E7020000DF020000D702000039
:10231000CF020000C7020000BF020000B7020000A9
:10232000AF020000A70200009F0200009702000019
:102330008F020000870200007F0200007702000089
:102340006F020000670200005F02000057020000F9
:102350004F020000470200003F0200003702000069
:102360002F020000270200001F02000017020000D9
:102370000F02000007020000FF010000F70100004B
:10238000EF010000E7010000DF010000D7010000BD
:10239000CF010000C7010000BF010000B70100002D
:1023A000AF010000A70100009F010000970100009D
:1023B0008F010000870100007F010000770100000D
:1023C0006F010000670100005F010000570100007D
:1023D0004F010000470100003F01000037010000ED
:1023E0002F010000270100001F010000170100005D
:1023F0000F01000007010000FF000000F7000000CF
:10240000EF000000E7000000DF000000D700000040
:10241000CF000000C7000000BF000000B7000000B0
:10242000AF000000A70000009F0000009700000020
:102430008F000000870000007F0000007700000090
:102440006F000000670000005F0000005700000000
:102450004F000000470000003F0000003700000070
:102460002F000000270000001F00000017000000E0
:102470000F0000000700000000000000070000003F
:102480000F000000170000001F00000027000000E0
:102490002F000000370000003F0000004700000050
:1024A0004F000000570000005F00000067000000C0
:1024B0006F000000770000007F0000008700000030
:1024C0008F000000970000009F000000A7000000A0
:1024D000AF000000B7000000BF000000C700000010
:1024E000CF000000D7000000DF000000E700000080
:1024F000EF000000F7000000FF00000007010000EF
:102500000F010000170100001F010000270100005B
:102510002F010000370100003F01000047010000CB
:102520004F010000570100005F010000670100003B
:102530006F010000770100007F01000087010000AB
:102540008F010000970100009F010000A70100001B
:10255000AF010000B7010000BF010000C70100008B
:10256000CF010000D7010000DF010000E7010000FB
:10257000EF010000F7010000FF010000070200006A
:102580000F020000170200001F02000027020000D7
:102590002F020000370200003F0200004702000047
:1025A0004F020000570200005F02000067020000B7
:1025B0006F020000770200007F0200008702000027
:1025C0008F020000970200009F020000A702000097
:1025D000AF020000B7020000BF020000C702000007
:1025E000CF020000D7020000DF020000E702000077
:1025F000EF020000F7020000FF02000007030000E6
:102600000F030000170300001F0300002703000052
:102610002F030000370300003F03000047030000C2
:102620004F030000570300005F0300006703000032
:102630006F030000770300007F03000087030000A2
:102640008F030000970300009F030000A703000012
:10265000AF030000B7030000BF030000C703000082
:10266000CF030000D7030000DF030000E7030000F2
:10267000EF030000F703000000127A0001000000E1
:042680000400000052
:040000050800198D49
:00000001FF
